:020000040000FA
:060000000A128A11122809
:10000800FE00030E83120313A7000408A8000A08C1
:10001800A9007F08AA000A128A112F280A128A1139
:10002800152883135730FD000530FE00DD30FF0032
:100038004A3084000A128A11AA250A128A113A3013
:1000480084004A300A128A111C260A128A11830176
:100058000A128A11B3298B1C3228332859284808D8
:10006800031D372838285728C801C80A0B30F40060
:100078000030F5000A128A117A240A128A11FB3A12
:10008800031D4728482858280A30F4000030F50096
:100098000A128A117A240A128A11FF007F08831231
:1000A8000313D4005828C8018B10831203138C1C27
:1000B8005E285F28F2284808031963286428F22874
:1000C8004208031968286928A828103085004908BB
:1000D80003196F28702887280A30F0000030F100D3
:1000E8005408A500A6012508F2002608F3000A1204
:1000F8008A11AE220A128A117008FF007F08831243
:100108000313BF009D280A30F0000030F1004008BA
:10011800A500A6012508F2002608F3000A128A1194
:10012800AE220A128A117008FF007F088312031397
:10013800BF003F080A128A11D3230A128A118312B8
:10014800031356058800E62820308500490803195E
:10015800AE28AF28C6280A30F0000030F100540855
:10016800A500A6012508F2002608F3000A128A1144
:100178007A230A128A117008FF007F08831203137A
:10018800BE00DC280A30F0000030F1004008A5006D
:10019800A6012508F2002608F3000A128A117A231C
:1001A8000A128A117008FF007F0883120313BE0029
:1001B8003E080A128A11D3230A128A1183120313E2
:1001C8005605880042080319EA28EC280130ED2872
:1001D8000030FF007F08C2008C1012150B1DF52897
:1001E800F628662948080319FA28FB2866294908C9
:1001F8000319FF2800291B290130FF007F08C507C4
:1002080002304506031D09290A291B29560A031924
:100218000E290F291429FF30AB000030AC00162935
:10022800AB01AC012B08FF007F08D600C5014708C9
:1002380003191F2920293B290130FF007F08C40723
:1002480002304406031D29292A293B29550A031986
:100258002E292F293429FF30AD000030AE00362971
:10026800AD01AE012D08FF007F08D500C4010230A2
:100278000A128A110D250A128A117008FF007F08D8
:1002880083120313C0000310C00C0A303D06031D7F
:100298004E294F295929BD014008FF003D084A3E13
:1002A80084007F088313800065294008FF003D080B
:1002B8004A3E84007F08831380000130FF007F08D6
:1002C800BD070B110C1C69296A29A82948080319BC
:1002D8006E296F29A82949080319732974297E29C9
:1002E80005303C02031879297A297E290130FF005C
:1002F8007F08BC0705303C06031D83298429A429EF
:10030800C901BC01FF30FF007F08D6000A30F900A0
:100318000030FA005408FF007F08FB000A128A1117
:1003280015230A128A110B30F9000030FA00FB304D
:10033800FF007F08FB000A128A1115230A128A118E
:10034800831203130C1010142A08FF0029088A00CE
:1003580028088400270E8300FE0E7E0E09000A126C
:100368008A1124260A128A110A128A1191250A1260
:100378008A110A128A1100260A128A110A128A118F
:10038800F6250A128A110A128A11EA250A128A1116
:100398000A128A110A260A128A11831203134808BC
:1003A8000319D729D829A62A8618DB29DC29F52993
:1003B800BC01861CE029E129DD294908031DE5293E
:1003C800E629E929C901C90AF5294B30540203185D
:1003D800EE29EF29F5298B130530FF007F08D40794
:1003E8008B170619F829F929102ABC01061DFD29C1
:1003F800FE29FA294908031D022A032A062AC901E7
:10040800C90A102A24305402031C0B2A0C2A102A69
:100418008B130530D4028B178B13C30143084A3E54
:10042800840083130008B600B7013608BA0703181A
:10043800BB0A3708BB070130FF007F08C307093034
:100448004302031C282A292A122A0A30AF00003046
:10045800B0003B08B2003A08B1000A128A11C7245A
:100468000A128A11831203132F08FF007F08C100A4
:100478008B17BA01BB015408B600B7013708B90099
:1004880041083602B800031CB9033908803AFF0056
:1004980080307F02031D522A05303802031C552A7A
:1004A800562A5C2A83120313C701C70AC6017A2A8F
:1004B800831203135408B600B7013708B90041087E
:1004C8003602B800031CB9033908803AFF007F30B0
:1004D8007F02031D712AFC3038020318742A752A1A
:1004E8007A2A83120313C701C601C60A83120313AB
:1004F8004708031D802A812A862A46080319852A67
:10050800862AA12A5508031D8A2A8E2A83120313D4
:100518000616912A83120313061247080319952A0F
:10052800962A992A87160711D129460803199D2A60
:100538009E2AAA2A87120715D129EF30FF007F08C3
:100548008605D129871207118801D129D1290A12D4
:100558008A111228F501F11FB22AB32ABA2AF00922
:10056800F109F00A0319F10AF501F50AF31FBD2A8A
:10057800BE2AC72AF209F309F20A0319F30A01305D
:10058800FF007F08F506F601F701700871040319EA
:10059800CE2ACF2A062BF401F40ADD2A01300310F3
:1005A800F00DF10DFF3E031DD32A0130FF007F0837
:1005B800F407F11FE02AE12AD22A01300310F60DD0
:1005C800F70DFF3E031DE22A71087302031DEE2A90
:1005D80070087202031CF12AF22AF92A7008F20242
:1005E8007108031CF303F302761401300310F10CB5
:1005F800F00CFF3E031DFA2A0130F402031D052BFF
:10060800062BE12A750803190A2B0B2B102BF60968
:10061800F709F60A0319F70A7708F1007608F000D7
:1006280008007B08FC00FD017C0883120313A3006B
:100638007D08A4007A080139FF007F08A000790826
:10064800FF007F08A100A2010A128A11CB250A1215
:100658008A118312031320080319332B342B3B2BE5
:10066800A2300A128A1153250A128A11412BA0308E
:100678000A128A1153250A128A11831203132108B8
:100688000A128A1153250A128A11831203132308A6
:100698000A128A1153250A128A110A128A11B925D7
:1006A8000A128A110130FF007F0883120313A20780
:1006B8007A08F5007908F4000A128A117A240A12D5
:1006C8008A11FC00FD018312031324087D06031D13
:1006D8006F2B23087C060319722B732B792B0A3096
:1006E8002202031C782B792B282B0800F501F31F15
:1006F8007E2B7F2B862BF209F309F20A0319F30AE2
:10070800F501F50AF11F892B8A2B8F2BF009F109C6
:10071800F00A0319F10A700871040319942B952B38
:10072800C42BF401F40AA32B01300310F00DF10DD2
:10073800FF3E031D992B0130FF007F08F407F11FCE
:10074800A62BA72B982B71087302031DAD2B7008DD
:100758007202031CB02BB12BB72B7008F202710880
:10076800031CF303F30201300310F10CF00CFF3EFD
:10077800031DB82B0130F402031DC32BC42BA72B78
:1007880075080319C82BC92BCE2BF209F309F20AF5
:100798000319F30A7308F1007208F0000800F0006A
:1007A800F72B3F30292C0630292C5B30292C4F3071
:1007B800292C6630292C6D30292C7D30292C0730C6
:1007C800292C7F30292C6F30292C7730292C7C302C
:1007D800292C5830292C5E30292C7930292C71305D
:1007E800292C0030292C7008003A0319D52B013A1E
:1007F8000319D72B033A0319D92B013A0319DB2B19
:10080800073A0319DD2B013A0319DF2B033A0319C1
:10081800E12B013A0319E32B0F3A0319E52B013AAF
:100828000319E72B033A0319E92B013A0319EB2BB8
:10083800073A0319ED2B013A0319EF2B033A031971
:10084800F12B013A0319F32BF52B0800F100F20103
:1008580083120313871183160313071683120313D6
:100868000716F30187150A128A1113260A128A112C
:1008780083120313070E0139F0007308073C013E89
:10088800472C0310F00DFF3E031D452C7008FF0098
:100898007F08F20487110130FF007F08F307083052
:1008A8007302031C582C592C362C83160313071279
:1008B80071080319602C612C652C8312031307122D
:1008C800682C8312031307160A128A1113260A12B8
:1008D8008A118312031387150A128A1113260A1222
:1008E8008A118312031387117208080075080139E9
:1008F800FF007F08F8007408FF007F08F7000A125D
:100908008A11CB250A128A11780803198C2C8D2C90
:10091800942CA2300A128A1153250A128A119A2C91
:10092800A0300A128A1153250A128A1177080A126E
:100938008A1153250A128A110A128A11CB250A1222
:100948008A1178080319A92CAA2CB12CA3300A12F1
:100958008A1153250A128A11B72CA1300A128A115A
:1009680053250A128A1101300A128A112A240A12FE
:100978008A11FF007F08F6000A128A11B9250A12A7
:100988008A117608080083120313B301B4012F08F3
:1009980030040319D02CD12C082DB501B50ADF2C51
:1009A80001300310AF0DB00DFF3E031DD52C0130F3
:1009B800FF007F08B507B01FE22CE32CD42C0130D0
:1009C8000310B30DB40DFF3E031DE42C30083202B2
:1009D800031DF02C2F083102031CF32CF42CFB2CE4
:1009E8002F08B1023008031CB203B20233140130DD
:1009F8000310B00CAF0CFF3E031DFC2C0130B502F8
:100A0800031D072D082DE32C3408B0003308AF0070
:100A18000800F9001E2D0130831203139F00292DB1
:100A28000930831203139F00292D113083120313F9
:100A38009F00292D7908003A03190F2D013A03194F
:100A4800142D033A0319192D292D831203131F1589
:100A58001F192F2D302D2C2D831603131E08F2007D
:100A680006300310F20CFF3E031D352D7208F3000B
:100A7800F401831203131E08F500F6010310F50DA7
:100A8800F60D0310F50DF60D73087504F7007408DC
:100A98007604F8007708F0007808F1000800F20002
:100AA800831203138711F3017208F0007308073CDF
:100AB800013E602D0310F00CFF3E031D5E2D7008F3
:100AC8000139F100F10E07087106EF397106870048
:100AD80087150A128A1113260A128A118312031320
:100AE80087110130FF007F08F30708307302031CE9
:100AF8007E2D7F2D582D07160A128A1113260A12E9
:100B08008A118312031387150A128A1113260A12EF
:100B18008A11831203138711080007308316031301
:100B280086000730850088018701EF30FF007F08C5
:100B38008312031386058316031381018B170B1782
:100B48000B1608007E088A007F0882000A128A11A4
:100B5800A6250A128A118000840A04087D06031952
:100B68000034FF0A0319FE0AAA2D831203138715FE
:100B780007120A128A1113260A128A118312031302
:100B880007160A128A1113260A128A1108008312FC
:100B98000313871507160A128A1113260A128A11D7
:100BA8008312031307120A128A1113260A128A11D2
:100BB80008003C343C343C343C343C343C343C3415
:100BC8003C343C343C343C34FF34FF340B30831227
:100BD80003138F00DC308E006130900083160313FE
:100BE8000C1408000130831203139100073092009F
:100BF800831603138C1408008B160730831603130F
:100C080081003C30831203138100080002308316F0
:100C180003139F004130831203139F000800000054
:100C280000000000000000000000000000000800B4
:100C380064008001840A04060319003404061D2E8A
:100C48008316031307128312031387150716080068
:02400E00BA3FB7
:00000001FF
